:100000000C9488000C94800E0C94A90E0C94D20EC3
:100010000C94FB0E0C94240F0C944D0F0C94760F43
:100020000C949F0F0C94AD000C94780A0C94AD00C6
:100030000C94AD000C94AD000C94AD000C94AD008C
:100040000C94AD000C94A00B0C94CC0B0C94F80BFE
:100050000C94AD000C94AD000C94AD000C94AD006C
:100060000C94AD000C945F0D0C94AD000C94AD009D
:100070000C94AD000C94AD000C94AD000C94AD004C
:100080000C94AD000C94AD000C94AD000C94AD003C
:100090000C948E0D0C94AD000C94AD000C94AD003E
:1000A0000C94AD000C94AD000C94240C0C94500CEA
:1000B0000C947C0C0C94AD000C94AD000C94AD0031
:1000C0000C94AD000C94AD000C94AD000C94BD0DDF
:1000D0000C94AD000C94AD000C94EC0D0C94AD00A0
:1000E0000C94AD000C94BC090C94ED020C946704C4
:1000F0000C94D7000C94B3000C94C80F0C945306C6
:100100000C94A9090C94FC020C94CA020C94F500FE
:1001100011241FBECFEFD1E2DEBFCDBF00E00CBF88
:1001200013E0A0E0B2E0E6ECF6E200E00BBF02C0B4
:1001300007900D92AA30B107D9F72AE0AAE0B3E000
:1001400001C01D92A537B207E1F70E94AF000C94E1
:1001500061130E9417010C9461130C9400000E941B
:100160004F010C94FF02C2E4D2E061E070E080E94C
:1001700097E00E94570180918F078F9380918E079F
:100180008F93DF93CF930E94761080E997E00E94CF
:100190009D010F900F900F900F9020E030E0A9018B
:1001A0006AEF70E080E090E00E949604DECF61E0AC
:1001B00070E080E997E00E94570110928B0710923F
:1001C0008A0781E090E090938D0780938C0780E907
:1001D00097E00E949D0120E030E0A9016AEF70E005
:1001E00080E090E00E949604E2CF61E070E080E958
:1001F00097E00E94570120918C0730918D078091E4
:100200008A0790918B078223932390938F07809383
:100210008E0780E997E00E949D0120E030E0A9016F
:100220006EE370E080E090E00E949604DECFCF9213
:10023000DF92EF92FF920F931F931092910710920B
:100240009007C12CD12CE12CF12C07ED10E024E01B
:1002500030E046E060E871E08AE096E00E945F03EB
:1002600005EF10E024E030E046E060E871E08AE865
:1002700094E00E945F0303EB10E024E030E046E0EE
:1002800060E871E08AE093E00E945F0380E090E024
:100290001F910F91FF90EF90DF90CF9008950E94F3
:1002A000CE090E9465040E94AA0C0C94E409EF9206
:1002B000FF920F931F93CF93DF93EC018B010E946A
:1002C000DE097C0188819981892B41F48FEF9FEFB2
:1002D00099838883C7010E94EA0920C0012B09F194
:1002E0000091B8071091B90762E070E0C8010E9460
:1002F0001E0288819981019641F4C801069699836E
:100300008883F8011782168204C0B801CE010E94CA
:100310003E03C7010E94EA090E94710A81E090E051
:1003200005C0C7010E94EA0980E090E0DF91CF910B
:100330001F910F91FF90EF900895EF92FF920F930E
:100340001F93CF93DF938C010E94DE097C01D801BB
:10035000ED91FC91309739F0EF3FBFEFFB0761F46F
:10036000F80111821082C701DF91CF911F910F9187
:10037000FF90EF900C94EA0980819181D8018D93D0
:100380009C93EF0126976AE070E0CE010E941E0266
:10039000F80180819181892B21F48FEF9FEF918368
:1003A0008083CB81D0E0C7010E94EA09CE01DF91B2
:1003B000CF911F910F91FF90EF900C94B00210928B
:1003C000FD071092FC07A091B807B091B9072091E2
:1003D00092073091930780E090E020FD04C03695AD
:1003E00027950196FACF880F991FFC01EA56F84F1E
:1003F0000190F081E02D0190F081E02D3697AE174D
:10040000BF07C9F0109741F012968C91129789306E
:1004100019F48AE012968C9389E082838481958115
:100420009093B7078093B607F093B907E093B807A6
:1004300081E090E0089580E090E008950F931F938D
:10044000CF93DF93FC01828169307105E0F189303F
:1004500008F080C09F012A5F3F4F838190E0880FA2
:10046000991FDC01AA56B84FCD91DC9111972097C6
:1004700051F048815981578346830D90BC91A02D3E
:100480002D933C9302C037832683DC01AA56B84FD4
:100490002D933C9381E090E0038002C0880F991F68
:1004A0000A94E2F7092E000CAA0BBB0B00919207ED
:1004B000109193072091940730919507802B912BF1
:1004C000A22BB32B3FC0893008F444C0A381B0E015
:1004D000AA0FBB1FAA56B84FCD91DC911197209758
:1004E00069F088819981C817D90719F41D921C9267
:1004F00005C0DC018D919C91998388832381A22F73
:10050000B0E0AA0FBB1FAA56B84F8D919C91892BC2
:1005100009F581E090E002C0880F991F2A95E2F763
:1005200080959095092E000CAA0BBB0B00919207A9
:100530001091930720919407309195078023912380
:10054000A223B3238093920790939307A0939407D9
:10055000B09395076283DF91CF911F910F9108951A
:10056000E091B807F091B90723813281393020F04A
:1005700030E08217930768F40E94F409892B39F060
:1005800081E090E09093FD078093FC0708950C9420
:10059000710A08950E94DE09E091B607F091B7074D
:1005A000EE0FFF1FE654F84F118210828091FE0774
:1005B0009091FF0701979093FF078093FE0760E0FB
:1005C00070E08091B8079091B9070E941E021092C6
:1005D000B9071092B8070E945E0A0E94A80C8FE427
:1005E00092E09F938F930E9476100E9417010F90C4
:1005F0000F9080E090E008950E94A809FDCF0E942E
:10060000DE09C0900002D0900102E12CF12C0CEF29
:1006100012E02CE030E04FE060E870E080E098E02D
:100620000E945F03C0900202D09003020DEE12E020
:100630002CE030E047E060E871E080E898E00E945C
:100640005F030E945E0A0E94DE09E091B807F09104
:10065000B9072281293070F0E381F0E0EE0FFF1F2F
:10066000EA56F84FA081B181109721F02D913C916D
:10067000318320830E94EA090C94710AFB012281D4
:10068000293028F069EE72E083E00E942104638142
:10069000AF014A5F5F4FDC012D913C91211531057F
:1006A00041F0D901169713967C91671710F0C90194
:1006B000F2CF37832683FC015183408308952F9224
:1006C0003F924F925F926F927F928F929F92AF92E2
:1006D000BF92CF92DF92EF92FF920F931F93CF932F
:1006E000DF9300D01F92CDB7DEB7522F40310CF010
:1006F0008EC09B012A513109DC01A20FB31FBC83BC
:10070000AB83FC0153FF09C0AB81BC81EA17FB0737
:1007100030F4F183E0833296F7CF91838083170121
:100720003801E52EF42E2B015C0129833A830E94C7
:10073000DE094C01ECEBF7E001E010E03A812981A1
:1007400081919191892B09F041C0F801EE0FFF1FB3
:10075000E654F84F8B819C8191838083DC01159650
:100760001C930E931497A501B101C3010E94290A9D
:10077000EB81FC8191838083B58AA48A518E408E5F
:10078000D78AC68AF3821282178216821186108651
:100790001386128615861486178616868FEF9FEFAE
:1007A000918B808B138A128A8091FE079091FF07AC
:1007B00001969093FF078093FE07E0FE12C061E070
:1007C00070E08B819C810E941E021CC00F5F1F4F36
:1007D0000132110509F0B4CFC4010E94EA098FEB80
:1007E00017C06AE070E08B819C810E941E02E2FCCF
:1007F00009C0C4010E94EA098F2DFF0C990B0E94C9
:10080000B00203C0C4010E94EA09C80102C084EE1C
:100810009FEF0F900F900F900F90DF91CF911F914E
:100820000F91FF90EF90DF90CF90BF90AF909F908F
:100830008F907F906F905F904F903F902F90089592
:100840000895CF93DF931F921F92CDB7DEB720910B
:10085000000A3091010A232B91F521E030E030931A
:10086000010A2093000A8330B1F40EB6202D0DB694
:10087000802D90E0922B9F938F9388EA92E09F9334
:100880008F9369837A830E9476100F900F900F9058
:100890000F907A8169817F936F938FEB92E09F93A2
:1008A0008F930E9476108BED92E09F938F930E941E
:1008B00076100F900F900F900F900F900F900E9456
:1008C000DE090E9420040E94A5090C94A4090C943E
:1008D0009D018F929F92AF92BF92CF92DF92EF9243
:1008E000FF926B017C0180E090E00E94900B4C0134
:1008F000A12CB12CEE24FF2480E090E00E94900B0C
:10090000A0E0B0E088199909AA09BB09AA27BB276A
:100910008C159D05AE05BF0578F3FF90EF90DF9035
:10092000CF90BF90AF909F908F9008958F929F929D
:10093000AF92BF92EF92FF920F931F93CF93DF93EB
:10094000CDB7DEB764970FB6F894DEBF0FBECDBF4C
:100950004B015C01298B3A8B4B8B5C8B0E94F40919
:1009600029893A894B895C89892B71F0232B242BA7
:10097000252B29F069EE72E083E00E942104C50175
:10098000B4010E9469042EC0188A1F8687E694E08D
:100990009C878B877E018FE0E80EF11CFE86ED863A
:1009A0001F82188619861A861B821C821D821E824F
:1009B00061E070E0C701298B3A8B4B8B5C8B0E9406
:1009C000570129893A894B895C8989019A01B501C6
:1009D000A401CE0101960E94FB0861E070E0C7010E
:1009E0000E94570164960FB6F894DEBF0FBECDBFCC
:1009F000DF91CF911F910F91FF90EF90BF90AF903B
:100A00009F908F90089580E090E00E94900BBC0131
:100A100080E090E00895CF92DF92EF92FF920F93E3
:100A20001F93C090080AD090090AE0900A0AF0903B
:100A30000B0A0E9403050091080A1091090A2091EF
:100A40000A0A30910B0A0C151D052E053F0549F7C2
:100A5000602B712B822B932B1F910F91FF90EF90A6
:100A6000DF90CF9008952091100A3091110A232B26
:100A700039F4AB0160E070E080E090E00C945F0B33
:100A800008950F931F93CF93DF93DC01E091020A47
:100A9000F091030AC2E0DAE0309741F10681178154
:100AA0002085318516964D915D916D917C911997B8
:100AB000041715072607370728F4EF010190F08186
:100AC000E02DEACF041715072607370779F40281CE
:100AD00013812481358112964D915D916D917C91A8
:100AE0001597401751076207730738F71196FC9363
:100AF000EE93B983A883DF91CF911F910F91089551
:100B00000F931F93CF93DF938091080A9091090A66
:100B1000A0910A0AB0910B0A11968093080A90934B
:100B2000090AA0930A0AB0930B0A8091080A9091CF
:100B3000090AA0910A0AB0910B0A892B8A2B8B2BE8
:100B400099F480910C0A90910D0AA0910E0AB0912F
:100B50000F0A0196A11DB11D80930C0A90930D0AF6
:100B6000A0930E0AB0930F0AE091040AF091050ACF
:100B7000F093070AE093060A1092050A1092040AFD
:100B8000A091020AB091030AED0180E090E0209765
:100B900081F140910C0A50910D0A60910E0A7091FA
:100BA0000F0A0E811F81288539854017510762077A
:100BB000730738F4D093030AC093020A0097F1F444
:100BC0006DC00091080A1091090A20910A0A30911B
:100BD0000B0A4A815B816C817D8144275527401730
:100BE00051076207730731F7CE010990D881C02DF4
:100BF000CECF1092030A1092020AE0CFEC011982C4
:100C00001882309709F446C0109791F00281138141
:100C10002481358112964D915D916D917C9115974E
:100C2000401751076207730718F49A2F8B2F02C0E1
:100C30009E2F8F2FC92F282FD22F0190F081E02DCA
:100C40000D90BC91A02D309719F4B983A8831DC0D5
:100C5000109719F4F983E88318C002811381248165
:100C6000358112964D915D916D917C91159740174C
:100C700051076207730718F43A2F2B2F02C03E2F3B
:100C80002F2F38832983C32FD7CF9093060A8093C1
:100C9000070A04C0B093070AA093060ADF91CF9118
:100CA0001F910F9108958F929F92AF92BF92CF9212
:100CB000DF92EF92FF9281E090E09093110A80938F
:100CC000100A8091060A9091070A892B51F40E941C
:100CD00080050E9403056F3F7F4F81059105C9F391
:100CE0007AC00E9403056B017C0136C0AA24BB2494
:100CF000681579058A059B0578F4E091060AF0915C
:100D0000070A82809380A480B5800E9403056C1539
:100D10007D058E059F0550F7A091060AB091070A40
:100D20008D919C9111979093070A8093060A1296D1
:100D30001D921D921D921C92159716961D921D9242
:100D40001D921C9219971A96ED91FC911B971C9677
:100D50008D919C911D971995E091060AF091070AD3
:100D6000309741F40E9403056C157D058E059F05A3
:100D700008F52FC082809380A480B5800E9403056F
:100D80006C157D058E059F0508F4B7CFAA24BB24FA
:100D9000681579058A059B0508F0AFCFA501940178
:100DA000261B370B480B590B2431310541055105E2
:100DB000C8F6A3CFE091060AF091070A309779F4BC
:100DC0000E9403054B015C016C157D058E059F0596
:100DD000E8F40E948005C12CD12C7601BDCF828021
:100DE0009380A480B58034E1831A9108A108B108EA
:100DF0000E940305DC01CB014496A11DB11D88169C
:100E00009906AA06BB0608F4A7CF19C0DC01CB01DE
:100E10004496A11DB11DAA27BB2788159905AA05CF
:100E2000BB0540F40E940305681579058A059B05FA
:100E3000C8F7CFCF88248A94982CA12CB12C10927B
:100E4000110A1092100AC501B401FF90EF90DF90D3
:100E5000CF90BF90AF909F908F900C943305FC0182
:100E6000A091060AB091070AA817B907C9F4ED9135
:100E7000FC91F093070AE093060A309759F08281BB
:100E80009381A481B581BC01CD01645171098109AF
:100E9000910904C06FEF7FEF80E090E00C94330580
:100EA000A6E0BAE08D919C911197009729F08E17DA
:100EB0009F0789F0DC01F6CFA4E0BAE08D919C9108
:100EC0001197009729F08E179F0729F0DC01F6CFC4
:100ED000A2E0BAE009C0808191818D939C9308952E
:100EE0008E179F07C1F3DC018D919C91119700979C
:100EF000B9F708950F931F9300E010E023E536E063
:100F000040E950ED63E070E080E090E00E940B0B60
:100F10006FEF7FEFCB011F910F910C9433058F92F0
:100F20009F92AF92BF92CF92DF92EF92FF920F9378
:100F30001F93CF93DF93EC016A017B010E940B05A5
:100F40004B015C0119821882C616D706E806F9061D
:100F500028F1D701C6018897A109B109881599051B
:100F6000AA05BB05D8F488E2C80ED11CE11CF11C0F
:100F7000EE24FF240E940305C616D706E806F906EC
:100F8000C8F30E9403056C157D058E059F05C8F307
:100F9000EA85FB858C859D8519959EC00E94DE099A
:100FA0008C018A819B81AC81BD81892B8A2B8B2B03
:100FB00009F08EC08E819F81A885B985892B8A2BE7
:100FC0008B2B09F085C0CA82DB82EC82FD82809186
:100FD0000C0A90910D0AA0910E0AB0910F0AC81444
:100FE000D904EA04FB0418F40196A11DB11D8E83F7
:100FF0009F83A887B98780910C0A90910D0AA091D0
:101000000E0AB0910F0A4E815F8168857985841739
:101010009507A607B70788F08091080A9091090AFA
:10102000A0910A0AB0910B0AB701A60144275527DF
:10103000481759076A077B0721F0CE010E94410536
:1010400043C0AA24BB248C149D04AE04BF0418F42E
:10105000A6E0BAE021C0A4E0BAE0ED91FC911197BE
:10106000309759F04281538164817581C416D50649
:10107000E606F70610F0DF01F0CFF983E883CD93A1
:10108000DC9322C04281538164817581C416D506E8
:10109000E606F70630F0DF01ED91FC9111973097ED
:1010A00089F7F983E883CD93DC938091060A9091C8
:1010B000070A8C179D0741F4C701B60164517109F5
:1010C000810991090E943305C8010E94EA0904C000
:1010D000CE010E942F0777CF80E090E0DF91CF9183
:1010E0001F910F91FF90EF90DF90CF90BF90AF9046
:1010F0009F908F9008950F931F93CF93DF93EC01F0
:101100000E94DE098C018A819B81AC81BD81892B83
:101110008A2B8B2B79F48E819F81A885B985892BA9
:101120008A2B8B2B39F4C801DF91CF911F910F913E
:101130000C94EA09CE010E942F07F5CF8F929F925F
:10114000AF92BF92CF92DF92EF92FF92CF93DF9355
:10115000FC0122853385232B09F442C06A017B01FF
:10116000EC010E947B08F8E2CF16D104E104F104FF
:1011700010F50E9403054B015C010E940305DC0190
:10118000CB0188199909AA09BB09AA27BB278C1585
:101190009D05AE05BF0588F3EA85FB858C859D8599
:1011A000DF91CF91FF90EF90DF90CF90BF90AF9005
:1011B0009F908F9019940E940B05AB01BC014C0DC0
:1011C0005D1D6E1D7F1DCE01DF91CF91FF90EF90D1
:1011D000DF90CF90BF90AF909F908F900C948F072F
:1011E000DF91CF91FF90EF90DF90CF90BF90AF90C5
:1011F0009F908F9008952F923F924F925F926F929F
:101200007F928F929F92AF92BF92CF92DF92EF9296
:10121000FF920F931F93CF93DF9300D01F92CDB710
:10122000DEB70115110521053105C1F40F900F90AE
:101230000F900F90DF91CF911F910F91FF90EF9042
:10124000DF90CF90BF90AF909F908F907F906F90E6
:101250005F904F903F902F900C949E0809831A83C3
:101260002B833C836A017B018C010E94DE091C01F7
:10127000F80182819381A481B581892B8A2B8B2BE4
:1012800009F05EC086819781A085B185892B8A2B64
:101290008B2B09F055C00E940B052B013C0180905F
:1012A0000C0A90900D0AA0900E0AB0900F0A0E94AE
:1012B0000B05641575058605970568F3F8018682A8
:1012C0009782A086B186DC01CB018C0D9D1DAE1DE1
:1012D000BF1D82839383A483B58329813A814B8187
:1012E0005C81820E931EA41EB51E8C159D05AE0555
:1012F000BF0530F4FFEF8F1A9F0AAF0ABF0AF8014B
:1013000086829782A086B186C8010E944105C101EC
:101310000F900F900F900F90DF91CF911F910F9131
:10132000FF90EF90DF90CF90BF90AF909F908F9005
:101330007F906F905F904F903F902F900C94EA09B0
:10134000C8010E942F07A7CF08950E94DE09FFCF92
:101350000895CF93DF931F92CDB7DEB761E070E0C1
:10136000CE0101960E94C20C8981082E000C990BB7
:101370000F90DF91CF910895CF93DF931F92CDB758
:10138000DEB7898361E070E0CE0101960E94C80C4F
:1013900080E090E00F90DF91CF9108950E94B10C12
:1013A000EFE6FAE082E192E09383828384E092E0C8
:1013B000918380838BEF92E00C948A100FB6802D7E
:1013C000F894807890E0089578940FB6802D807816
:1013D00090E00895FF920F93F82E0FB7087FF02A40
:1013E000FFBE0F91FF9008958091120A90E008953A
:1013F0000E94E409A091B807B091B907CD91CDBF83
:10140000DD91DEBFFF91EF91DF91CF91BF91AF9161
:101410009F918F917F916F915F914F913F912F910C
:101420001F910F91FF90EF90DF90CF90BF90AF9002
:101430009F908F907F906F905F904F903F902F90F4
:101440001F900F900CBE0F900BBE0F900FBE0F9011
:101450000895240F351FF90131974FEA40833197E2
:101460004EEF40834AEC52E03197408331975083EE
:101470003197108231978083319790833197108212
:1014800031971082319780E88083319710823197AD
:10149000108231971082C90183971292E817F907D9
:1014A000E1F7F901B4976083319770838AE1829301
:1014B0008F5F8032E1F7C9018C9708950E94DF01A8
:1014C000E4E0F1E0808180648083E8E6F0E0808100
:1014D00082608083ECE6F0E08081806880830E94F7
:1014E000F809E5E0F1E0908180E4892780830895A0
:1014F0000F920FB6F8940F920BB60F920CB60F9294
:101500001F9211242F923F924F925F926F927F927F
:101510008F929F92AF92BF92CF92DF92EF92FF9203
:101520000F931F932F933F934F935F936F937F93EB
:101530008F939F93AF93BF93CF93DF93EF93FF93DB
:10154000A091B807B091B9070DB60D920EB60D92E5
:101550000E94DF01A091B807B091B907CD91CDBF2E
:10156000DD91DEBFFF91EF91DF91CF91BF91AF9100
:101570009F918F917F916F915F914F913F912F91AB
:101580001F910F91FF90EF90DF90CF90BF90AF90A1
:101590009F908F907F906F905F904F903F902F9093
:1015A0001F900F900CBE0F900BBE0F900FBE0F90B0
:1015B000189521E02093120A2CE0AC01249FC00171
:1015C000259F900D1124DC01A05EBD4F1296ED9178
:1015D000FC9113972081AB014F5F5F4F81E090E05A
:1015E00001C0880F4A95EAF780958223808316967A
:1015F000ED91FC91179718968D919C9119971995DB
:101600008091FC079091FD07892B11F00E94230324
:101610001092120A08958F929F92AF92BF92CF922A
:10162000DF92EF92FF920F931F93DC010297D8F4A1
:10163000EDEFF2E090E0C12C84E2D82E84EFE82EAA
:10164000F12C46015701019004C0B694A7949794D9
:1016500087940A94D2F79F5F84169506A606B7066C
:1016600029F0953071F78FEF9FEF1EC08CE08A9FB5
:10167000F0018B9FF00D1124E05EFD4FA081B18140
:101680001C9211961C92119712961C921297159605
:101690001C921E92149737832683118700879287A6
:1016A00011969C9380E090E01F910F91FF90EF9036
:1016B000DF90CF90BF90AF909F908F900895633050
:1016C00071055CF52CE0289FF001299FF00D112495
:1016D000E05EFD4F80819181DB011496AA0FBB1F54
:1016E000A80FB91F11965C934E93A481B5812C91DC
:1016F0006F5F7F4F81E090E001C0880F6A95EAF745
:10170000982F909592239C930280F381E02D9081F5
:10171000892B808381E090E008958FEF9FEF0895FB
:101720002CE0AC01249FC001259F900D1124FC01E9
:10173000E05EFD4F0190F081E02D84819581089558
:101740001F920F920FB60F9211240BB60F922F9388
:101750003F934F935F936F937F938F939F93AF9339
:10176000BF93EF93FF9360E070E080E090E00E9411
:10177000D90AFF91EF91BF91AF919F918F917F9186
:101780006F915F914F913F912F910F900BBE0F90F2
:101790000FBE0F901F9018951F920F920FB60F92C9
:1017A00011240BB60F922F933F934F935F936F9338
:1017B0007F938F939F93AF93BF93EF93FF9361E0DA
:1017C00070E080E090E00E94D90AFF91EF91BF9114
:1017D000AF919F918F917F916F915F914F913F91C9
:1017E0002F910F900BBE0F900FBE0F901F9018956A
:1017F0001F920F920FB60F9211240BB60F922F93D8
:101800003F934F935F936F937F938F939F93AF9388
:10181000BF93EF93FF9362E070E080E090E00E945E
:10182000D90AFF91EF91BF91AF919F918F917F91D5
:101830006F915F914F913F912F910F900BBE0F9041
:101840000FBE0F901F9018951F920F920FB60F9218
:1018500011240BB60F922F933F934F935F936F9387
:101860007F938F939F93AF93BF93EF93FF9360E02A
:1018700070E081E090E00E94D90AFF91EF91BF9162
:10188000AF919F918F917F916F915F914F913F9118
:101890002F910F900BBE0F900FBE0F901F901895B9
:1018A0001F920F920FB60F9211240BB60F922F9327
:1018B0003F934F935F936F937F938F939F93AF93D8
:1018C000BF93EF93FF9361E070E081E090E00E94AE
:1018D000D90AFF91EF91BF91AF919F918F917F9125
:1018E0006F915F914F913F912F910F900BBE0F9091
:1018F0000FBE0F901F9018951F920F920FB60F9268
:1019000011240BB60F922F933F934F935F936F93D6
:101910007F938F939F93AF93BF93EF93FF9362E077
:1019200070E081E090E00E94D90AFF91EF91BF91B1
:10193000AF919F918F917F916F915F914F913F9167
:101940002F910F900BBE0F900FBE0F901F90189508
:101950000C947A0763E087E190E00E94420E2F9892
:1019600008950F931F9308E312E028EC3FE040E84E
:1019700055E260E070E080E090E00E94F60C1F917C
:101980000F910895AB01BC0188E392E00C94DA0F4B
:10199000CF93DF93EB01AB01BC0180E090E00E94AC
:1019A000460DCE01DF91CF910895FC01EE0FFF1F90
:1019B000EE5FFC4F0190F081E02D6681880F991F4A
:1019C000880F991FDC01AD5AB54FED91FC9111972D
:1019D00012968D919C91139719958091FC07909187
:1019E000FD07892B11F00C9423030895EF92FF92C9
:1019F0000F931F93CF93DF93790184309105E8F51E
:101A0000FC01EE0FFF1FEE0FFF1FED5AF54FF182A5
:101A1000E08213830283880F991FFC01EE5FFC4F65
:101A2000C081D1811982188286E08A83DB01CA01D4
:101A300080589B47A14EBF4FE3E0880F991FAA1F14
:101A4000BB1FEA95D1F79A01AB01F4E0220F331FD7
:101A5000441F551FFA95D1F7BC01CD010E945410C7
:101A6000215031093D832C83EF2811F088E901C012
:101A700088E0898380E090E002C08FEF9FEFDF91E4
:101A8000CF911F910F91FF90EF900895CF93DF9327
:101A9000FB01460F571F880F991FDC01AE5FBC4F3B
:101AA000E417F50749F0CD91DC911197888185FF06
:101AB000FDCF81918E83F4CFDF91CF9108951F9256
:101AC0000F920FB60F9211240BB60F922F933F93E4
:101AD0004F935F936F937F938F939F93AF93BF9336
:101AE000EF93FF9381E08093120A80E090E00E94E0
:101AF000D50C1092120AFF91EF91BF91AF919F9177
:101B00008F917F916F915F914F913F912F910F90A6
:101B10000BBE0F900FBE0F901F9018951F920F9243
:101B20000FB60F9211240BB60F922F933F934F9342
:101B30005F936F937F938F939F93AF93BF93EF9335
:101B4000FF9381E08093120A81E090E00E94D50C1F
:101B50001092120AFF91EF91BF91AF919F918F91D7
:101B60007F916F915F914F913F912F910F900BBE9D
:101B70000F900FBE0F901F9018951F920F920FB6E7
:101B80000F9211240BB60F922F933F934F935F93B5
:101B90006F937F938F939F93AF93BF93EF93FF9335
:101BA00081E08093120A82E090E00E94D50C1092AE
:101BB000120AFF91EF91BF91AF919F918F917F9109
:101BC0006F915F914F913F912F910F900BBE0F90AE
:101BD0000FBE0F901F9018951F920F920FB60F9285
:101BE00011240BB60F922F933F934F935F936F93F4
:101BF0007F938F939F93AF93BF93EF93FF9381E076
:101C00008093120A83E090E00E94D50C1092120A91
:101C1000FF91EF91BF91AF919F918F917F916F91C4
:101C20005F914F913F912F910F900BBE0F900FBE80
:101C30000F901F90189524E0969587952A95E1F7C7
:101C4000282F2F7033E0239FC0011124273010F478
:101C50008296089583519F4F089591E09093120AC0
:101C600024E0829FC0011124DC01AD59B54FED91F4
:101C7000FC91119712968D919C9113971995109242
:101C8000120A0895CF93C82F623031F16330B9F052
:101C9000611132C00E941B0EFC014291CF7021E005
:101CA00030E002C0220F331FCA95E2F7209530952D
:101CB000342F32233083FC013081232319C00E944A
:101CC0001B0EFC018291CF7021E030E001C0220F99
:101CD000CA95EAF7282B0CC00E941B0EFC0140811C
:101CE000CF7021E030E001C0220FCA95EAF7242B23
:101CF000208380E090E002C08FEF9FEFCF910895A6
:101D00001F920F920FB60F9211240BB60F922F93C2
:101D10003F934F935F936F937F938F939F93AF9373
:101D2000BF93EF93FF9380E00E942D0EFF91EF9100
:101D3000BF91AF919F918F917F916F915F914F91E3
:101D40003F912F910F900BBE0F900FBE0F901F90E1
:101D500018951F920F920FB60F9211240BB60F9287
:101D60002F933F934F935F936F937F938F939F93A3
:101D7000AF93BF93EF93FF9381E00E942D0EFF91ED
:101D8000EF91BF91AF919F918F917F916F915F91F3
:101D90004F913F912F910F900BBE0F900FBE0F9060
:101DA0001F9018951F920F920FB60F9211240BB629
:101DB0000F922F933F934F935F936F937F938F93E4
:101DC0009F93AF93BF93EF93FF9382E00E942D0EFA
:101DD000FF91EF91BF91AF919F918F917F916F9103
:101DE0005F914F913F912F910F900BBE0F900FBEBF
:101DF0000F901F9018951F920F920FB60F921124FB
:101E00000BB60F922F933F934F935F936F937F93F4
:101E10008F939F93AF93BF93EF93FF9383E00E94C1
:101E20002D0EFF91EF91BF91AF919F918F917F9177
:101E30006F915F914F913F912F910F900BBE0F903B
:101E40000FBE0F901F9018951F920F920FB60F9212
:101E500011240BB60F922F933F934F935F936F9381
:101E60007F938F939F93AF93BF93EF93FF9384E000
:101E70000E942D0EFF91EF91BF91AF919F918F9195
:101E80007F916F915F914F913F912F910F900BBE7A
:101E90000F900FBE0F901F9018951F920F920FB6C4
:101EA0000F9211240BB60F922F933F934F935F9392
:101EB0006F937F938F939F93AF93BF93EF93FF9312
:101EC00085E00E942D0EFF91EF91BF91AF919F9100
:101ED0008F917F916F915F914F913F912F910F90D3
:101EE0000BBE0F900FBE0F901F9018951F920F9270
:101EF0000FB60F9211240BB60F922F933F934F936F
:101F00005F936F937F938F939F93AF93BF93EF9361
:101F1000FF9386E00E942D0EFF91EF91BF91AF914C
:101F20009F918F917F916F915F914F913F912F91F1
:101F30000F900BBE0F900FBE0F901F9018951F9221
:101F40000F920FB60F9211240BB60F922F933F935F
:101F50004F935F936F937F938F939F93AF93BF93B1
:101F6000EF93FF9387E00E942D0EFF91EF91BF91B9
:101F7000AF919F918F917F916F915F914F913F9121
:101F80002F910F900BBE0F900FBE0F901F901895C2
:101F90000F931F93CF93DF93EC0102960E942810BA
:101FA0008C01CE010E949D01C801DF91CF911F914C
:101FB0000F910895CF92DF92EF92FF920F931F93AC
:101FC000CF93DF93EC017B016A018C010E5F1F4F01
:101FD000A601B701C8010E94FE0F009731F461E02D
:101FE00070E0CE010E945701F3CFDF91CF911F9196
:101FF0000F91FF90EF90DF90CF900895CF93DF93F4
:10200000FC01EB01BA0161157105E1F02481358114
:102010008681978128173907A9F0808191812481D1
:102020003581D9011196B583A483A281B38111971B
:102030002A233B23DC01A20FB31F8C9189936150AB
:102040007109E1CFCA01861B970BDF91CF910895EB
:10205000DC0116962D913C91179714964D915C9149
:10206000159712968D919C911397241B350B281769
:102070003907B9F0ED91FC91119716962D913C918D
:102080001797A9014F5F5F4F17965C934E93169772
:10209000019728233923E20FF31F608380E090E04B
:1020A00008958FEF9FEF0895A1E21A2EAA1BBB1B84
:1020B000FD010DC0AA1FBB1FEE1FFF1FA217B30714
:1020C000E407F50720F0A21BB30BE40BF50B661F2A
:1020D000771F881F991F1A9469F7609570958095EE
:1020E00090959B01AC01BD01CF010895CF93DF9383
:1020F000CDB7DEB7AE014A5F5F4FFA0161917191D2
:10210000AF018091710A9091720A0E94BA10DF911A
:10211000CF9108950F931F93CF93DF93E091710AAE
:10212000F091720A238121FF1BC08C01D0E0C0E036
:10213000F80181918F016091710A7091720ADB013F
:102140001896ED91FC911997882331F01995892BF8
:1021500079F3DFEFCFEFECCF8AE01995892B19F0F7
:102160008FEF9FEF02C08D2F9C2FDF91CF911F919A
:102170000F9108952F923F924F925F926F927F92AC
:102180008F929F92AF92BF92CF92DF92EF92FF9287
:102190000F931F93CF93DF93CDB7DEB72C970FB676
:1021A000F894DEBF0FBECDBF7C016B018A01FC013C
:1021B00017821682838181FFBDC1CE0101964C0139
:1021C000F7019381F60193FD859193FF81916F0152
:1021D000882309F4ABC1853239F493FD859193FFCF
:1021E00081916F01853229F4B70190E00E94CB12F2
:1021F000E7CF512C312C20E02032A0F48B3269F053
:1022000030F4803259F0833269F420612CC08D3271
:1022100039F0803339F4216026C02260246023C065
:10222000286021C027FD27C030ED380F3A3078F400
:1022300026FF06C0FAE05F9E300D1124532E13C016
:102240008AE0389E300D1124332E20620CC08E326D
:1022500021F426FD6BC1206406C08C3611F4206881
:1022600002C0883641F4F60193FD859193FF819178
:102270006F018111C1CF982F9F7D9554933028F421
:102280000C5F1F4FFFE3F9830DC0833631F08337B6
:1022900071F0833509F05BC022C0F8018081898329
:1022A0000E5F1F4F44244394512C540115C0380134
:1022B000F2E06F0E711CF801A080B18026FF03C010
:1022C000652D70E002C06FEF7FEFC5012C870E9483
:1022D000C0122C0183012C852F77222E17C03801C4
:1022E000F2E06F0E711CF801A080B18026FF03C0E0
:1022F000652D70E002C06FEF7FEFC5012C870E9453
:10230000B5122C012C852068222E830123FC1BC0D2
:10231000832D90E048165906B0F4B70180E290E0B2
:102320000E94CB123A94F4CFF50127FC859127FE49
:1023300081915F01B70190E00E94CB1231103A9475
:10234000F1E04F1A51084114510471F7E5C0843689
:1023500011F0893639F5F80127FF07C060817181D6
:10236000828193810C5F1F4F08C060817181072EAD
:10237000000C880B990B0E5F1F4F2F76722E97FF64
:1023800009C090958095709561957F4F8F4F9F4FB5
:102390002068722E2AE030E0A4010E940313A82EC8
:1023A000A81844C0853729F42F7EB22E2AE030E0E9
:1023B00025C0F22FF97FBF2E8F36C1F018F4883573
:1023C00079F0B4C0803719F0883721F0AFC02F2FD3
:1023D0002061B22EB4FE0DC08B2D8460B82E09C0D2
:1023E00024FF0AC09F2F9660B92E06C028E030E077
:1023F00005C020E130E002C020E132E0F801B7FE84
:1024000007C060817181828193810C5F1F4F06C07C
:102410006081718180E090E00E5F1F4FA4010E94F7
:102420000313A82EA818FB2DFF777F2E76FE0BC076
:10243000372D3E7FA51450F474FE0AC072FC08C00C
:10244000372D3E7E05C0BA2C372D03C0BA2C01C0F3
:10245000B52C34FF0DC0FE01EA0DF11D80818033E3
:1024600011F4397E09C032FF06C0B394B39404C09E
:10247000832F867809F0B39433FD13C030FF06C074
:102480005A2CB31418F4530C5B18B32CB31468F41F
:10249000B70180E290E03C870E94CB12B3943C8568
:1024A000F5CFB31410F43B1801C0312C34FF12C027
:1024B000B70180E390E03C870E94CB123C8532FF5D
:1024C00017C031FD03C088E790E002C088E590E0C6
:1024D000B7010CC0832F867859F031FF02C08BE220
:1024E00001C080E237FD8DE2B70190E00E94CB127F
:1024F000A51438F4B70180E390E00E94CB125A94FF
:10250000F7CFAA94F401EA0DF11D8081B70190E0A4
:102510000E94CB12A110F5CF332009F451CEB701A0
:1025200080E290E00E94CB123A94F6CFF7018681C8
:10253000978102C08FEF9FEF2C960FB6F894DEBF05
:102540000FBECDBFDF91CF911F910F91FF90EF9004
:10255000DF90CF90BF90AF909F908F907F906F90C3
:102560005F904F903F902F900895FC01059061502F
:1025700070400110D8F7809590958E0F9F1F089599
:10258000FC016150704001900110D8F78095909542
:102590008E0F9F1F08950F931F93CF93DF93FB011F
:1025A000238121FD03C08FEF9FEF28C022FF16C0BB
:1025B00046815781248135814217530744F4A08115
:1025C000B1819D012F5F3F4F318320838C93268102
:1025D00037812F5F3F4F3783268310C0EB01092FD0
:1025E000182F0084F185E02D1995892BE1F68E8155
:1025F0009F8101969F838E83812F902FDF91CF91B2
:102600001F910F910895FA01AA27283051F1203126
:1026100081F1E8946F936E7F6E5F7F4F8F4F9F4F76
:10262000AF4FB1E03ED0B4E03CD0670F781F891FB8
:102630009A1FA11D680F791F8A1F911DA11D6A0F86
:10264000711D811D911DA11D20D009F468943F9139
:102650002AE0269F11243019305D3193DEF6CF0138
:102660000895462F4770405D4193B3E00FD0C9F7FE
:10267000F6CF462F4F70405D4A3318F0495D31FD6B
:102680004052419302D0A9F7EACFB4E0A6959795BE
:10269000879577956795BA95C9F700976105710594
:1026A00008959B01AC010A2E0694579547953795DE
:1026B0002795BA95C9F7620F731F841F951FA01D38
:0626C0000895F894FFCF1D
:1026C6009E02A30200000001000000000000A9090C
:1026D60000000000000200000000BC09000000002D
:1026E60080006F003600000000000000A0007200AD
:1026F60039000000000000000000130A400000003E
:1027060000004F7574707574202564200A0D006DE5
:1027160061696E28293A20546869732069732052CA
:10272600494F5421202856657273696F6E3A2032DC
:102736003031382E30372D646576656C2D33312D6A
:102746006738643666352D77617161722D4C617418
:1027560069747564652D4536323330290A0069641B
:102766006C65006D61696E00537461636B20506F18
:10277600696E7465723A203078253034780A002AFA
:102786002A2A2052494F54206B65726E656C207060
:10279600616E69633A0A25730A0A002A2A2A2068A2
:1027A600616C7465642E0A0A004641494C45442012
:1027B600415353455254494F4E2E000C0000030618
:0A27C600080AC000C800D00030016E
:040000030000015E9A
:00000001FF
